:100000000C945A000C9466000C9464000C946400E8
:100010000C9464000C9464000C9464000C946400D0
:100020000C9464000C9464000C9464000C946400C0
:100030000C9464000C9464000C9464000C946400B0
:100040000C9464000C9464000C9464000C946400A0
:100050000C9464000C9464000C9464000C94640090
:100060000C9464000C9464000C9464000C94640080
:100070000C9464000C9464000C9464000C94640070
:100080000C9464000C9464000C9464000C94640060
:100090000C9464000C9464000C9464000C94640050
:1000A0000C9464000C9464000C9464000C94640040
:1000B0000C94640011241FBECFEFD8E0DEBFCDBF8B
:1000C0000E9485000C9495000C9400001F920F92E2
:1000D0000FB60F9211242F938F939F9385B18F7D2D
:1000E00085B92FEF85EE9AEA215080409040E1F7E4
:1000F00000C0000085B1806285B99F918F912F91DA
:100100000F900FBE0F901F9018958BB184608BB924
:1001100084B1806284B985B1806285B981E08DBB8C
:0E01200083E0809369007894FFCFF894FFCFBE
:00000001FF
