:100000000C9471000C9483000C9483000C94830076
:100010000C9483000C9483000C9483000C94830054
:100020000C9483000C9483000C9483000C94830044
:100030000C9483000C9483000C9483000C94830034
:100040000C9483000C9483000C9483000C94830024
:100050000C9483000C9483000C9483000C94830014
:100060000C9483000C9483000C9483000C94830004
:100070000C9483000C9483000C9483000C948300F4
:100080000C9483000C9483000C9483000C948300E4
:100090000C9483000C9483000C9483000C948300D4
:1000A0000C9483000C9483000C9483000C948300C4
:1000B0000C948300084AD73B3BCE016E84BCBFFD45
:1000C000C12F3D6C74319ABD56833DDA3D00C77F28
:1000D00011BED9E4BB4C3E916BAAAABE00000080C1
:1000E0003F0011241FBECFEFD8E0DEBFCDBF21E01F
:1000F000A0E0B1E001C01D92A832B207E1F70E9472
:100100004E030C9429070C9400001092B90088E467
:100110008093B800089594EA9093BC009091BC003D
:100120009923E4F79091B900987F903191F48093EE
:10013000BB0084E88093BC008091BC008823E4F776
:100140008091B900887F803431F0803231F482E0D0
:10015000089580E0089581E0089583E0089584E99A
:100160008093BC008091BC0084FDFCCF0895CF93A8
:10017000C82F84EA8093BC008091BC008823E4F7F8
:100180008091B900887F8830A1F7C093BB0084E8D4
:100190008093BC008091BC008823E4F78091B90073
:1001A000887F883119F00E94AF00E3CFCF91089586
:1001B0008093BB0084E88093BC008091BC008823BE
:1001C000E4F78091B900887F883221F0803321F4F0
:1001D00081E0089580E0089582E0089584EC8093A2
:1001E000BC008091BC008823E4F78091BB00089597
:1001F00084E88093BC008091BC008823E4F7809160
:10020000BB0008954F925F926F927F928F929F9260
:10021000AF92BF92CF92DF92EF92FF92CF93DF9394
:10022000CDB7DEB72A970FB6F894DEBF0FBECDBFAD
:1002300023E333E343E851E4609104017091050145
:1002400080910601909107010E9408052AE037ED90
:1002500043E25CE30E949606209120013091210147
:1002600040912201509123010E9425044B015C0121
:1002700060932001709321018093220190932301C8
:1002800023E333E343E851E460911C0170911D01C5
:1002900080911E0190911F010E9408052AE037ED10
:1002A00043E25CE30E9496062B013C019B01AC01FA
:1002B0006091240170912501809126019091270180
:1002C0000E94240469837A838B839C836093240136
:1002D000709325018093260190932701A301920139
:1002E000609118017091190180911A0190911B0180
:1002F0000E942504609318017093190180931A01DC
:1003000090931B018091140190911501A091160109
:10031000B09117018D839E83AF83B887BC01CD0157
:100320000E947A057A876987DB01BB2334F4222790
:100330003327261B370B3A87298740900C015090B2
:100340000D0160900E0170900F01C301B2010E9477
:100350007A059B01772324F422273327261B370BAA
:10036000A985BA85A20FB31FBA87A987C0900001DB
:10037000D0900101E0900201F0900301C701B601A5
:100380000E947A059B01772324F422273327261B1A
:10039000370B89859A85820F931F813090420CF428
:1003A0006CC0A7019601C301B2010E94A40420E021
:1003B00030E044E353E40E9496062BED3FE049E42D
:1003C00050E40E9408052B013C0128E431EE4AE785
:1003D0005FE3C501B4010E9496064B015C012AE06F
:1003E00037ED43EA5CE3C301B2010E9496069B012C
:1003F000AC01C501B4010E942504609320017093F3
:1004000021018093220190932301A70196016D8120
:100410007E818F8198850E94A40420E030E044E32F
:1004200053E40E9496062BED3FE049E450E40E941D
:1004300008054B015C0128E431EE4AE75FE369817E
:100440007A818B819C810E9496066B017C012AE057
:1004500037ED43EA5CE3C501B4010E9496069B01B7
:10046000AC01C701B6010E9425046093240170937A
:10047000250180932601909327012A960FB6F894C0
:10048000DEBF0FBECDBFDF91CF91FF90EF90DF9029
:10049000CF90BF90AF909F908F907F906F905F9024
:1004A0004F9008952FEF82E597E0215080409040D3
:1004B000E1F700C0000080ED0E94B70089E10E94D2
:1004C000D80087E00E94D8000E94AF0080ED0E9413
:1004D000B7008BE60E94D80081E00E94D8000E94FD
:1004E000AF0080ED0E94B7008AE10E94D80080E052
:1004F0000E94D8000E94AF0080ED0E94B7008BE1FF
:100500000E94D80088E10E94D8000E94AF0080EDD0
:100510000E94B70088E30E94D80081E00E94D800C2
:100520000E94AF00089580ED0E94B7008BE30E9407
:10053000D80081ED0E948B000895CF93DF930E9435
:1005400093020E94EE00C82FD0E0DC2FCC270E943F
:10055000EE00BE01682B072E000C880B990B0E9441
:10056000B205609314017093150180931601909366
:1005700017010E94EE00C82FD0E0DC2FCC270E948C
:10058000EE00BE01682B072E000C880B990B0E9411
:10059000B20560930C0170930D0180930E0190934E
:1005A0000F010E94EE00C82FD0E0DC2FCC270E9464
:1005B000EE00BE01682B072E000C880B990B0E94E1
:1005C000B205609300017093010180930201909342
:1005D00003010E94EE00C82FD0E0DC2FCC270E9440
:1005E000EE00BE01682B072E000C880B990B0E94B1
:1005F000B205609308017093090180930A019093FA
:100600000B010E94EE00C82FD0E0DC2FCC270E9407
:10061000EE00BE01682B072E000C880B990B0E9480
:10062000B2056093040170930501809306019093D5
:1006300007010E94EE00C82FD0E0DC2FCC270E94DB
:10064000EE00BE01682B072E000C880B990B0E9450
:10065000B20560931C0170931D0180931E0190935D
:100660001F010E94EE00C82FD0E0DC2FCC270E9493
:10067000F800BE01682B072E000C880B990B0E9416
:10068000B205609310017093110180931201909351
:1006900013010E94AF00DF91CF9108950E94850061
:1006A0000E94520260E875E280E090E00E94F00350
:1006B0008FE084B90E949D020E9402016091240192
:1006C00070912501809126019091270120E030E072
:1006D00040EA51E40E94890618163CF133C089E0D3
:1006E00085B98FE19EE40197F1F700C000008CE02E
:1006F00085B98FE19EE40197F1F700C0000086E024
:1007000085B98FE19EE40197F1F700C0000083E016
:1007100085B98FE19EE40197F1F700C000000E94C7
:100720009D020E940201219602C0C0E0D0E0C436C2
:10073000D105ACF289E085B98FE19EE40197F1F72C
:1007400000C0000060912401709125018091260174
:100750009091270120E030E040EA51EC0E9403052F
:1007600088233CF133C089E085B98FE19EE401978D
:10077000F1F700C0000083E085B98FE19EE40197A6
:10078000F1F700C0000086E085B98FE19EE4019793
:10079000F1F700C000008CE085B98FE19EE401977D
:1007A000F1F700C000000E949D020E940201219604
:1007B00002C0C0E0D0E0C436D105ACF289E085B912
:1007C0008FE19EE40197F1F700C000009FEF21EE5A
:1007D00084E0915020408040E1F700C000006ACFE3
:1007E000E1ECF0E0208128612083E2ECF0E0208160
:1007F00026602083DC01CB01880F991FAA1FBB1F35
:10080000880F991FAA1FBB1F9C01AD01220F331F28
:10081000441F551F220F331F441F551F60E074E211
:1008200084EF90E00E9407078FEF820F8093C4004F
:10083000DA01C9010197A109B109892F9A2FAB2FBC
:10084000BB278093C50008955058BB27AA270E9454
:100850003C040C944F060E94410638F00E94480662
:1008600020F039F49F3F19F426F40C9417060EF487
:10087000E095E7FB0C941106E92F0E94600658F3FF
:10088000BA17620773078407950720F079F4A6F575
:100890000C9482060EF4E0950B2EBA2FA02D0B01BE
:1008A000B90190010C01CA01A0011124FF27591BB5
:1008B00099F0593F50F4503E68F11A16F040A22FBB
:1008C000232F342F4427585FF3CF4695379527952C
:1008D000A795F0405395C9F77EF41F16BA0B620B2B
:1008E000730B840BBAF09150A1F0FF0FBB1F661F72
:1008F000771F881FC2F70EC0BA0F621F731F841FB5
:1009000048F4879577956795B795F7959E3F08F0DA
:10091000B0CF9395880F08F09927EE0F979587959C
:1009200008950E94410660F080E891E009F49EEF8E
:100930000E94480628F040E851E071F45EEF0CC0D8
:100940000C9417060C948206E92FE0780E9460064A
:1009500040F3092E052AB1F3261737074807590730
:1009600038F00E2E07F8E02569F0E025E0640AC0B3
:10097000EF6307F8009407FADB01B9019D01DC0180
:10098000CA01AD01EF930E941F050E944F060E940D
:10099000D4045F91552339F02BED3FE049E450FD3D
:1009A00049EC0C9425040895DF93DD27B92FBF7718
:1009B00040E85FE31616170648075B0718F4D92FBF
:1009C0000E948E069F938F937F936F930E940307DD
:1009D000E4EBF0E00E941A060E944F062F913F912F
:1009E0004F915F910E94A906DD2351F09058A2EA31
:1009F0002AED3FE049EC5FE3D0785D270E943C049C
:100A0000DF910C944F060E94ED0508F481E00895F3
:100A10000E941C050C944F060E94480658F00E9444
:100A2000410640F029F45F3F29F00C941106511162
:100A30000C9483060C9417060E94600668F39923B1
:100A4000B1F3552391F3951B550BBB27AA276217CA
:100A50007307840738F09F5F5F4F220F331F441FD7
:100A6000AA1FA9F335D00E2E3AF0E0E832D091500B
:100A70005040E695001CCAF72BD0FE2F29D0660FF8
:100A8000771F881FBB1F261737074807AB07B0E83B
:100A900009F0BB0B802DBF01FF2793585F4F3AF041
:100AA0009E3F510578F00C9411060C9483065F3F2D
:100AB000E4F3983ED4F3869577956795B795F795C7
:100AC0009F5FC9F7880F911D9695879597F90895AF
:100AD000E1E0660F771F881FBB1F6217730784074B
:100AE000BA0720F0621B730B840BBA0BEE1F88F75A
:100AF000E09508950E9481056894B1110C948306D5
:100B000008950E94680688F09F5798F0B92F99279A
:100B1000B751B0F0E1F0660F771F881F991F1AF0E8
:100B2000BA95C9F714C0B13091F00E948206B1E0C5
:100B300008950C948206672F782F8827B85F39F0C4
:100B4000B93FCCF3869577956795B395D9F73EF481
:100B500090958095709561957F4F8F4F9F4F089529
:100B6000E89409C097FB3EF4909580957095619547
:100B70007F4F8F4F9F4F9923A9F0F92F96E9BB27FD
:100B80009395F695879577956795B795F111F8CF79
:100B9000FAF4BB0F11F460FF1BC06F5F7F4F8F4FE4
:100BA0009F4F16C0882311F096E911C0772321F0DA
:100BB0009EE8872F762F05C0662371F096E8862F72
:100BC00070E060E02AF09A95660F771F881FDAF7C9
:100BD000880F9695879597F90895990F0008550FF6
:100BE000AA0BE0E8FEEF16161706E807F907C0F0B3
:100BF00012161306E407F50798F0621B730B840BBB
:100C0000950B39F40A2661F0232B242B252B21F494
:100C100008950A2609F4A140A6958FEF811D811D34
:100C2000089597F99F6780E870E060E008959FEF6E
:100C300080EC0895DF93CF931F930F93FF92EF9271
:100C4000DF927B018C01689406C0DA2EEF010E94CE
:100C5000A906FE01E894A5912591359145915591FC
:100C6000A6F3EF010E943C04FE019701A801DA946B
:100C700069F7DF90EF90FF900F911F91CF91DF9177
:100C8000089500240A9416161706180609060895F2
:100C900000240A9412161306140605060895092E58
:100CA0000394000C11F4882352F0BB0F40F4BF2BC7
:100CB00011F460FF04C06F5F7F4F8F4F9F4F089507
:100CC00057FD9058440F551F59F05F3F71F04795FD
:100CD000880F97FB991F61F09F3F79F087950895E2
:100CE000121613061406551FF2CF4695F1DF08C001
:100CF000161617061806991FF1CF8695710561051E
:100D000008940895E894BB2766277727CB0197F9C5
:100D100008950E94ED0508F48FEF08959B01AC0142
:100D200060E070E080E89FE30C9408050E94A9064B
:100D30000C944F060E94410638F00E94480620F0AD
:100D4000952311F00C9411060C94170611240C94A1
:100D500083060E94600670F3959FC1F3950F50E0E3
:100D6000551F629FF001729FBB27F00DB11D639F5D
:100D7000AA27F00DB11DAA1F649F6627B00DA11D03
:100D8000661F829F2227B00DA11D621F739FB00DA9
:100D9000A11D621F839FA00D611D221F749F332719
:100DA000A00D611D231F849F600D211D822F762FB2
:100DB0006A2F11249F5750409AF0F1F088234AF08F
:100DC000EE0FFF1FBB1F661F771F881F91505040FB
:100DD000A9F79E3F510580F00C9411060C948306F0
:100DE0005F3FE4F3983ED4F3869577956795B79582
:100DF000F795E7959F5FC1F7FE2B880F911D96959C
:100E0000879597F908959B01AC010C949606A1E291
:100E10001A2EAA1BBB1BFD010DC0AA1FBB1FEE1F74
:100E2000FF1FA217B307E407F50720F0A21BB30BBF
:100E3000E40BF50B661F771F881F991F1A9469F73B
:100E400060957095809590959B01AC01BD01CF0197
:060E50000895F894FFCFA5
:00000001FF
