:100000000C945A000C946C000C946C000C946C00D2
:100010000C946C000C946C000C946C000C946E00AE
:100020000C946C000C946C000C946C000C946C00A0
:100030000C946C000C946C000C946C000C946C0090
:100040000C946C000C946C000C946C000C946C0080
:100050000C946C000C946C000C946C000C946C0070
:100060000C946C000C946C000C946C000C946C0060
:100070000C946C000C946C000C946C000C946C0050
:100080000C946C000C946C000C946C000C946C0040
:100090000C946C000C946C000C946C000C946C0030
:1000A0000C946C000C946C000C946C000C946C0020
:1000B0000C946C0011241FBECFEFD8E0DEBFCDBF83
:1000C00021E0A0E0B1E001C01D92A230B207E1F74B
:1000D0000E9492000C94AC000C9400001F920F92AE
:1000E0000FB60F9211242F938F939F93809100014D
:1000F0009091010101969093010180930001813D4F
:10010000974041F495B184E0892785B910920101A7
:10011000109200019F918F912F910F900FBE0F9021
:100120001F90189584B1846084B985B1846085B9C5
:10013000E0EBF0E0808182608083E1EBF0E08081A1
:100140008460808386EA8093B300E0E7F0E08081FA
:0C015000826080837894FFCFF894FFCF8A
:00000001FF
