:100000000C945A000C946C000C946C000C946C00D2
:100010000C946C000C946C000C946C000C94980084
:100020000C946C000C946C000C946C000C946C00A0
:100030000C946C000C946E000C946C000C946C008E
:100040000C946C000C946C000C946C000C946C0080
:100050000C946C000C946C000C946C000C946C0070
:100060000C946C000C946C000C946C000C946C0060
:100070000C946C000C946C000C946C000C946C0050
:100080000C946C000C946C000C946C000C946C0040
:100090000C946C000C946C000C946C000C946C0030
:1000A0000C946C000C946C000C946C000C946C0020
:1000B0000C946C0011241FBECFEFD8E0DEBFCDBF83
:1000C00021E0A0E0B1E001C01D92A430B207E1F749
:1000D0000E94BC000C94FD000C9400001F920F9233
:1000E0000FB60F9211242F938F939F93809102014B
:1000F0009091030101969093030180930201883E41
:10010000934044F095B188E0892785B910920301A6
:100110001092020186E0809384008FEF8093850027
:100120009F918F912F910F900FBE0F901F90189558
:100130001F920F920FB60F9211242F938F939F93BC
:1001400080910001909101010196909301018093AB
:100150000001813D974041F495B184E0892785B93C
:1001600010920101109200019F918F912F910F9099
:100170000FBE0F901F90189584B18C6184B985B122
:100180008C6185B914BC85B5846085BD16BCE1E879
:10019000F0E080818360808386E0809384008FEF2D
:1001A00080938500E0EBF0E0808182608083E1EB6A
:1001B000F0E080818460808386EA8093B300EFE67C
:1001C000F0E0808181608083E0E7F0E08081826000
:1001D0008083789420E030E086B58431E9F72F5FA2
:1001E0003F4F25338CE0380734F095B180E1892703
:0E01F00085B920E030E016BCEFCFF894FFCFC9
:00000001FF
