S01200004441335F5461736B31412E73726563F6
S11300000C945A000C9464000C9464000C946400E6
S11300100C9464000C9464000C9464000C946400CC
S11300200C9464000C9464000C9464000C946400BC
S11300300C9464000C9464000C9464000C946400AC
S11300400C9464000C9464000C9464000C9464009C
S11300500C9464000C9464000C9464000C9464008C
S11300600C9464000C9464000C9464000C9464007C
S11300700C9464000C9464000C9464000C9464006C
S11300800C9464000C9464000C9464000C9464005C
S11300900C9464000C9464000C9464000C9464004C
S11300A00C9464000C9464000C9464000C9464003C
S11300B00C94640011241FBECFEFD8E0DEBFCDBF87
S11300C00E9466000C9484000C94000084B180614A
S11300D084B985B1806185B914BC85B5846085BD5A
S11300E016BC20E030E086B58431E9F72F5F3F4F3E
S11300F025338CE0380734F095B180E1892785B940
S10F010020E030E016BCEFCFF894FFCFF5
S9030000FC
