S00B00004441342E7372656360
S11300000C9489000C94A6000C94A6000C94A600F1
S11300100C94A6000C94A6000C94A6000C94A600C4
S11300200C94A6000C94A6000C94A6000C94A600B4
S11300300C94A6000C94A6000C94DA000C94A60070
S11300400C94A6000C94A6000C943A010C94A600FF
S11300500C94A6000C94A6000C94A6000C94A60084
S11300600C94A6000C94A6000C94A6000C94A60074
S11300700C94A6000C94A6000C94A6000C94A60064
S11300800C94A6000C94A6000C94A6000C94A60054
S11300900C94A6000C94A6000C94A6000C94A60044
S11300A00C94A6000C94A6000C94A6000C94A60034
S11300B00C94A6008B019001900190019001900195
S11300C090019001900190019001900190019001A4
S11300D067017901900190019001900190019001D4
S11300E09001900190019001900190019001900184
S11300F09001900185016E019001900190019001A1
S1130100900159019001900190019001900190019A
S1130110600111241FBECFEFD8E0DEBFCDBF13E0D6
S1130120A0E0B1E0ECECF9E002C005900D92A43A35
S1130130B107D9F723E0A4EAB3E001C01D92AA3ABB
S1130140B207E1F70E94AF010C94E4040C940000A0
S11301509093C5008093C40088E98093C100E2ECC9
S1130160F0E08081866080837894089584B582600D
S113017084BD85B5836085BD8CE787BDEEE6F0E080
S1130180808182608083089584B1886284B985B156
S1130190886285B9089580E480937C0085E080932B
S11301A07A00089585B18F7D85B9089585B18062FF
S11301B085B908951F920F920FB60F9211242F93B1
S11301C08F939F938091A8039091A9030197A1F421
S11301D08091A4039091A50301969093A503809325
S11301E0A403883E934041F495B188E0892785B9FA
S11301F01092A5031092A4039F918F912F910F90B9
S11302000FBE0F901F901895FC0107C09091C0007D
S113021095FFFCCF8093C600319680818111F6CF83
S1130220089580E091E00E94040188E591E00E9435
S113023004018BE991E00E9404018FEB91E00E949C
S1130240040184EE91E00E94040184E292E00E94A1
S113025004018DE492E00E94040180EA92E00E948D
S1130260040189EE92E00E94040187E393E00E9476
S1130270040108951F920F920FB60F9211242F9329
S11302803F934F935F936F937F938F939F93AF931A
S1130290BF93EF93FF93E091C6008E2F90E0FC0193
S11302A0E154F109EF32F105D8F5E65AFF4F0C9409
S11302B0F40180917A0088239CF10E94110130C0DE
S11302C080917A00882364F10E94D20029C0809131
S11302D07A0088232CF10E94D60022C080917A00F3
S11302E08823F4F081E090E09093A9038093A8031D
S11302F017C080917A00882324F01092A9031092E9
S1130300A80385B1886085B90BC0EAE7F0E0808175
S11303108068808305C0EAE7F0E080818F7780837E
S1130320FF91EF91BF91AF919F918F917F916F91C9
S11303305F914F913F912F910F900FBE0F901F909F
S11303401895EAE7F0E080818064808380917800EA
S1130350909179009093A7038093A6030895CF9377
S1130360DF93CDB7DEB7C456D1090FB6F894DEBF1C
S11303700FBECDBF87E690E00E94A80080E993E01D
S11303800E9404010E94B6000E94C4000E94CB0097
S11303900E94110180917A008823E4F70E94A10150
S11303A08091A6039091A7039F938F938CE993E088
S11303B09F938F938E010F5F1F4F1F930F930E9484
S11303C0FA01C8010E9404012FEF81EE94E021504C
S11303D080409040E1F700C000000F900F900F9014
S11303E00F900F900F90D6CFEE0FFF1F0590F49152
S11303F0E02D0994AEE0B0E0E0E0F2E00C94BB0440
S11304000D891E8986E08C831A8309838FEF9FE709
S11304109E838D83AE01475E5F4F6F89788DCE01D9
S113042001960E941C02EF81F885E00FF11F1082F3
S11304302E96E4E00C94D704ABE0B0E0E2E2F2E004
S11304400C94AD046C017B018A01FC0117821682B5
S1130450838181FFCCC1CE0101963C01F6019381D9
S1130460F70193FD859193FF81917F01882309F41E
S1130470BAC1853239F493FD859193FF81917F014F
S1130480853229F4B60190E00E941304E7CF912C41
S1130490212C312CFFE1F315D8F08B3279F038F4AC
S11304A0803279F08332A1F4232D20611DC08D3276
S11304B061F0803369F4232D216016C0832D82609E
S11304C0382EE32DE4603E2E2AC0F32DF8601DC0C3
S11304D037FC2DC020ED280F2A3040F08E32B9F4BD
S11304E036FC81C1232D2064322E19C036FE06C08D
S11304F08AE0989E200D1124922E11C0EAE02E9ECF
S1130500200D1124222EF32DF0623F2E08C08C36CC
S113051021F4832D8068382E02C0883641F4F70117
S113052093FD859193FF81917F018111B3CF982F22
S11305309F7D9554933028F40C5F1F4F9FE399835C
S11305400DC0833631F0833771F0833509F059C01B
S113055021C0F801808189830E5F1F4F8824839412
S1130560912C530113C02801F2E04F0E511CF801E5
S1130570A080B18036FE03C0692D70E002C06FEF29
S11305807FEFC5010E9408044C018201F32DFF771F
S11305903F2E16C0280122E0420E511CF801A08013
S11305A0B18036FE03C0692D70E002C06FEF7FEFAB
S11305B0C5010E94FD034C01F32DF0683F2E82011A
S11305C033FC1BC0822D90E088169906B0F4B60166
S11305D080E290E00E9413042A94F4CFF50137FCE2
S11305E0859137FE81915F01B60190E00E9413046A
S11305F021102A9421E0821A91088114910471F740
S1130600E8C0843611F0893641F5F80137FE07C099
S113061060817181828193810C5F1F4F08C060816A
S11306207181072E000C880B990B0E5F1F4FF32D61
S1130630FF763F2E97FF09C0909580957095619540
S11306407F4F8F4F9F4FF0683F2E2AE030E0A30189
S11306500E944F04882E861845C0853731F4232D17
S11306602F7EB22E2AE030E025C0932D997FB92E3B
S11306708F36C1F018F4883579F0B5C0803719F099
S1130680883721F0B0C0E92FE061BE2EB4FE0DC062
S1130690FB2DF460BF2E09C034FE0AC0292F26604A
S11306A0B22E06C028E030E005C020E130E002C0F0
S11306B020E132E0F801B7FE07C0608171818281D8
S11306C093810C5F1F4F06C06081718180E090E0D0
S11306D00E5F1F4FA3010E944F04882E8618FB2D26
S11306E0FF773F2E36FE0DC0232D2E7FA22E8914B8
S11306F058F434FE0BC032FC09C0832D8E7EA82E24
S113070005C0B82CA32C03C0B82C01C0B92CA4FE7E
S11307100FC0FE01E80DF11D8081803321F49A2D74
S1130720997EA92E09C0A2FE06C0B394B39404C056
S11307308A2D867809F0B394A3FC11C0A0FE06C0EC
S1130740B21488F4280C922C9B180EC0B21460F4D6
S1130750B60180E290E00E941304B394F7CFB21480
S113076018F42B1802C0982C212CA4FE10C0B6013A
S113077080E390E00E941304A2FE17C0A1FC03C012
S113078088E790E002C088E590E0B6010CC08A2DAD
S1130790867859F0A1FE02C08BE201C080E2A7FC7A
S11307A08DE2B60190E00E941304891438F4B60176
S11307B080E390E00E9413049A94F7CF8A94F301A3
S11307C0E80DF11D8081B60190E00E9413048110B0
S11307D0F5CF222009F442CEB60180E290E00E94D7
S11307E013042A94F6CFF6018681978102C08FEF15
S11307F09FEF2B96E2E10C94C904FC010590615033
S113080070400110D8F7809590958E0F9F1F089522
S1130810FC016150704001900110D8F780959095CB
S11308208E0F9F1F08950F931F93CF93DF93FB01A8
S1130830238121FD03C08FEF9FEF2CC022FF16C040
S113084046815781248135814217530744F4A0819E
S1130850B1819D012F5F3F4F318320838C9326818B
S113086037812F5F3F4F3783268314C08B01EC0100
S1130870FB010084F185E02D0995892BE1F6D8016F
S113088016968D919C911797019617969C938E932B
S11308901697CE01DF91CF911F910F910895FA0120
S11308A0AA27283051F1203181F1E8946F936E7FAB
S11308B06E5F7F4F8F4F9F4FAF4FB1E03ED0B4E09C
S11308C03CD0670F781F891F9A1FA11D680F791FDD
S11308D08A1F911DA11D6A0F711D811D911DA11DEE
S11308E020D009F468943F912AE0269F11243019FE
S11308F0305D3193DEF6CF010895462F4770405D99
S11309004193B3E00FD0C9F7F6CF462F4F70405D47
S11309104A3318F0495D31FD4052419302D0A9F7A2
S1130920EACFB4E0A6959795879577956795BA959C
S1130930C9F700976105710508959B01AC010A2E62
S113094006945795479537952795BA95C9F7620F39
S1130950731F841F951FA01D08952F923F924F92DD
S11309605F926F927F928F929F92AF92BF92CF923B
S1130970DF92EF92FF920F931F93CF93DF93CDB744
S1130980DEB7CA1BDB0B0FB6F894DEBF0FBECDBFBC
S113099009942A88398848885F846E847D848C848D
S11309A09B84AA84B984C884DF80EE80FD800C8196
S11309B01B81AA81B981CE0FD11D0FB6F894DEBF79
S10F09C00FBECDBFED010895F894FFCFE9
S11309CC2A2A2A2A2A2A2A2A2A2A2A2A2A2A2A2A77
S11309DC2A2A2A2A2A2A2A2A2A2A2A2A2A2A2A2A67
S11309EC2A2A2A4441342048656C7020536372656A
S11309FC656E3A2A2A2A2A2A2A2A2A2A2A2A2A2AB8
S1130A0C2A2A2A2A2A2A2A2A2A2A2A2A2A2A2A2A36
S1130A1C2A2A2A2A2A2A0A002768270920446973C1
S1130A2C706C61797320612068656C7020736372DB
S1130A3C65656E20746F206C6973747320616C6CC3
S1130A4C206B65797320616E642066756E637469BE
S1130A5C6F6E616C69746965730A00276F270920CE
S1130A6C5475726E73206F6E204C454420636F6E08
S1130A7C6E656374656420746F205042350A0027D8
S1130A8C4F2709205475726E73206F6666204C458F
S1130A9C4420636F6E6E656374656420746F2050BC
S1130AAC42350A002762270920426C696E6B732059
S1130ABC746865204C454420636F6E6E6563746581
S1130ACC6420746F2050423320636F6E74696E75AA
S1130ADC6F75736C79206576657279207365636FB5
S1130AEC6E640A0027502709205475726E73206FA8
S1130AFC666620746865204C454420636F6E6E6591
S1130B0C6374656420746F205042330A0027612794
S1130B1C0920526561647320616E6420646973708A
S1130B2C6C61797320746865204144432076616C50
S1130B3C75652066726F6D2074686520706F7465BE
S1130B4C6E74696F6D6574657220636F6E6E656328
S1130B5C74656420746F204143302F5043300A0075
S1130B6C09205E20506C65617365206E6F7465207E
S1130B7C746861742074686520414443206D7573F6
S1130B8C742062652073746F70706564206265668E
S1130B9C6F72652074616B696E67206F746865721F
S1130BAC20696E707574730A0027412709205374E9
S1130BBC6F70732072656164696E67207468652058
S1130BCC4144432076616C75652066726F6D2074A8
S1130BDC686520706F74656E74696F6D6574657289
S1130BEC20636F6E6E656374656420746F2041437B
S1130BFC302F5043300A002A2A2A2A2A2A2A2A2A3F
S1130C0C2A2A2A2A2A2A2A2A2A2A2A2A2A2A2A2A34
S1130C1C2A2A2A2A2A2A2A2A2A2A2A2A2A2A2A2A24
S1130C2C2A2A2A2A2A2A2A2A2A2A2A2A2A2A2A2A14
S1130C3C2A2A2A2A2A2A2A2A2A2A2A2A2A2A2A2A04
S1130C4C2A2A2A2A2A2A2A2A2A2A2A2A2A0A0A005E
S1130C5C436F6E6E6563746564210A002564206DB0
S1070C6C560D0A0013
S9030000FC
