S01200004441335F5461736B31422E73726563F5
S11300000C945A000C946C000C946C000C946C00CE
S11300100C946C000C946C000C946C000C946C00AC
S11300200C946C000C946C000C946C000C946C009C
S11300300C946C000C946E000C946C000C946C008A
S11300400C946C000C946C000C946C000C946C007C
S11300500C946C000C946C000C946C000C946C006C
S11300600C946C000C946C000C946C000C946C005C
S11300700C946C000C946C000C946C000C946C004C
S11300800C946C000C946C000C946C000C946C003C
S11300900C946C000C946C000C946C000C946C002C
S11300A00C946C000C946C000C946C000C946C001C
S11300B00C946C0011241FBECFEFD8E0DEBFCDBF7F
S11300C021E0A0E0B1E001C01D92A230B207E1F747
S11300D00E9498000C94B0000C9400001F920F92A0
S11300E00FB60F9211242F938F939F938091000149
S11300F09091010101969093010180930001883E43
S1130100934044F095B188E0892785B910920101A4
S11301101092000186E0809384008FEF8093850025
S11301209F918F912F910F900FBE0F901F90189554
S113013084B1886084B985B1886085B9E1E8F0E06C
S113014080818360808386E0809384008FEF809336
S11301508500EFE6F0E08081816080837894FFCFB2
S1070160F894FFCF3D
S9030000FC
