:100000000C94EE000C940B010C940B010C940B015E
:100010000C940B010C940B010C940B010C940B0130
:100020000C940B010C940B010C940B010C940B0120
:100030000C940B010C940B010C940B010C940B0110
:100040000C940B010C940B010C940B010C940B0100
:100050000C940B010C940B010C940B010C940B01F0
:100060000C940B010C940B010C940B010C940B01E0
:100070000C940B010C940B010C940B010C940B01D0
:100080000C940B010C940B010C940B010C940B01C0
:100090000C940B010C940B010C940B010C940B01B0
:1000A0000C940B010C940B010C940B010C940B01A0
:1000B0000C940B01084AD73B3BCE016E84BCBFFDBC
:1000C000C12F3D6C74319ABD56833DDA3D00C77F28
:1000D00011BED9E4BB4C3E916BAAAABE00000080C1
:1000E0003F0000407A10F35A00A0724E1809001029
:1000F000A5D4E80000E87648170000E40B5402009D
:1001000000CA9A3B000000E1F505000080969800C7
:10011000000040420F000000A086010000001027F0
:1001200000000000E8030000000064000000000080
:100130000A00000000000100000000002C76D888B2
:10014000DC674F0823DFC1DFAE59E1B1B796E5E3C5
:10015000E453C63AE651997696E8E6C28426EB89DE
:100160008C9B62ED407C6FFCEFBC9C9F40F2BAA57B
:100170006FA5F490055A2AF75C936B6CF9676DC113
:100180001BFCE0E40D47FEF520E6B500D0ED902E17
:100190000300943577050080841E080000204E0A75
:1001A000000000C80C333333330F986E12831141B3
:1001B000EF8D2114893BE65516CFFEE6DB18D1847E
:1001C0004B381BF77C1D901DA4BBE42420328472A5
:1001D0005E228100C9F124ECA1E53D2711241FBE58
:1001E000CFEFD8E0DEBFCDBF11E0A0E0B1E0EEE59B
:1001F000F9E102C005900D92AA30B107D9F721E0CC
:10020000AAE0B1E001C01D92A233B207E1F70E945B
:10021000D6030C94AD0C0C9400001092B90088E445
:100220008093B800089594EA9093BC009091BC002C
:100230009923E4F79091B900987F903191F48093DD
:10024000BB0084E88093BC008091BC008823E4F765
:100250008091B900887F803431F0803231F482E0BF
:10026000089580E0089581E0089583E0089584E989
:100270008093BC008091BC0084FDFCCF0895CF9397
:10028000C82F84EA8093BC008091BC008823E4F7E7
:100290008091B900887F8830A1F7C093BB0084E8C3
:1002A0008093BC008091BC008823E4F78091B90062
:1002B000887F883119F00E943701E3CFCF910895EC
:1002C0008093BB0084E88093BC008091BC008823AD
:1002D000E4F78091B900887F883221F0803321F4DF
:1002E00081E0089580E0089582E0089584EC809391
:1002F000BC008091BC008823E4F78091BB00089586
:1003000084E88093BC008091BC008823E4F780914E
:10031000BB0008954F925F926F927F928F929F924F
:10032000AF92BF92CF92DF92EF92FF92CF93DF9383
:10033000CDB7DEB72A970FB6F894DEBF0FBECDBF9C
:1003400023E333E343E851E460910E0170910F0120
:1003500080911001909111010E9479052AE037EDFA
:1003600043E25CE30E94DE0620912A0130912B01DA
:1003700040912C0150912D010E949B044B015C0186
:1003800060932A0170932B0180932C0190932D018F
:1003900023E333E343E851E46091260170912701A0
:1003A00080912801909129010E9479052AE037ED7A
:1003B00043E25CE30E94DE062B013C019B01AC01A1
:1003C00060912E0170912F01809130019091310147
:1003D0000E949A0469837A838B839C8360932E01A5
:1003E00070932F018093300190933101A30192010A
:1003F0006091220170912301809124019091250147
:100400000E949B0460932201709323018093240136
:100410009093250180911E0190911F01A0912001D0
:10042000B09121018D839E83AF83B887BC01CD013C
:100430000E94EB057A876987DB01BB2334F422270E
:100440003327261B370B3A87298740901601509097
:1004500017016090180170901901C301B2010E9448
:10046000EB059B01772324F422273327261B370B28
:10047000A985BA85A20FB31FBA87A987C0900A01C0
:10048000D0900B01E0900C01F0900D01C701B60176
:100490000E94EB059B01772324F422273327261B98
:1004A000370B89859A85820F931F813090420CF417
:1004B0006CC0A7019601C301B2010E941A0520E099
:1004C00030E044E353E40E94DE062BED3FE049E4D4
:1004D00050E40E9479052B013C0128E431EE4AE703
:1004E0005FE3C501B4010E94DE064B015C012AE016
:1004F00037ED43EA5CE3C301B2010E94DE069B01D3
:10050000AC01C501B4010E949B0460932A01709361
:100510002B0180932C0190932D01A70196016D81F1
:100520007E818F8198850E941A0520E030E044E3A7
:1005300053E40E94DE062BED3FE049E450E40E94C4
:1005400079054B015C0128E431EE4AE75FE36981FC
:100550007A818B819C810E94DE066B017C012AE0FE
:1005600037ED43EA5CE3C501B4010E94DE069B015E
:10057000AC01C701B6010E949B0460932E017093E9
:100580002F0180933001909331012A960FB6F89491
:10059000DEBF0FBECDBFDF91CF91FF90EF90DF9018
:1005A000CF90BF90AF909F908F907F906F905F9013
:1005B0004F9008952FEF82E597E0215080409040C2
:1005C000E1F700C0000080ED0E943F0189E10E9438
:1005D000600187E00E9460010E94370180ED0E9467
:1005E0003F018BE60E94600181E00E9460010E9451
:1005F000370180ED0E943F018AE10E94600180E0A6
:100600000E9460010E94370180ED0E943F018BE152
:100610000E94600188E10E9460010E94370180ED24
:100620000E943F0188E30E94600181E00E94600116
:100630000E943701089580ED0E943F018BE30E94E4
:10064000600181ED0E9413010895CF93DF930E9412
:100650001B030E947601C82FD0E0DC2FCC270E941C
:100660007601BE01682B072E000C880B990B0E94A7
:10067000230660931E0170931F01809320019093C5
:1006800021010E947601C82FD0E0DC2FCC270E94E8
:100690007601BE01682B072E000C880B990B0E9477
:1006A00023066093160170931701809318019093AD
:1006B00019010E947601C82FD0E0DC2FCC270E94C0
:1006C0007601BE01682B072E000C880B990B0E9447
:1006D000230660930A0170930B0180930C019093A1
:1006E0000D010E947601C82FD0E0DC2FCC270E949C
:1006F0007601BE01682B072E000C880B990B0E9417
:100700002306609312017093130180931401909358
:1007100015010E947601C82FD0E0DC2FCC270E9463
:100720007601BE01682B072E000C880B990B0E94E6
:10073000230660930E0170930F0180931001909334
:1007400011010E947601C82FD0E0DC2FCC270E9437
:100750007601BE01682B072E000C880B990B0E94B6
:1007600023066093260170932701809328019093BC
:1007700029010E947601C82FD0E0DC2FCC270E94EF
:100780008001BE01682B072E000C880B990B0E947C
:10079000230660931A0170931B0180931C019093B0
:1007A0001D010E943701DF91CF910895CF93DF9310
:1007B000CDB7DEB76E970FB6F894DEBF0FBECDBFD4
:1007C0000E940D010E94DA0260E875E280E090E08C
:1007D0000E9449040E9425030E948A017E0185E14E
:1007E000E80EF11C60912A0170912B0180912C017F
:1007F00090912D01870122E043E00E947107FF9252
:10080000EF920F2EF0E0AF2EF1E0BF2EF02DBF9251
:10081000AF92CE0101966C019F938F930E94910736
:10082000C6010E948404609122017091230180918D
:1008300024019091250122E043E00E947107FF927C
:10084000EF92BF92AF92DF92CF920E949107C601C2
:100850000E94840460912E0170912F0180913001DB
:100860009091310122E043E00E947107FF92EF92E4
:1008700085E091E09F938F93DF92CF920E94910742
:10088000C6010E9484040FB6F894DEBF0FBECDBF30
:10089000A1CFE1ECF0E0208128612083E2ECF0E0E0
:1008A000208126602083DC01CB01880F991FAA1FBD
:1008B000BB1F880F991FAA1FBB1F9C01AD01220FF0
:1008C000331F441F551F220F331F441F551F60E065
:1008D00074E284EF90E00E944F078FEF820F8093C5
:1008E000C400DA01C9010197A109B109892F9A2F22
:1008F000AB2FBB278093C50008958093C6008091DD
:10090000C00085FFFCCF08950F931F93CF93DF9313
:100910008C01C0E0D0E003C00E947D042196F80164
:10092000EC0FFD1F80818111F7CFDF91CF911F91D7
:100930000F9108955058BB27AA270E94B2040C9427
:100940009C060E948E0638F00E94950620F039F42D
:100950009F3F19F426F40C9464060EF4E095E7FB2F
:100960000C945E06E92F0E94AD0658F3BA17620791
:1009700073078407950720F079F4A6F50C94CF0649
:100980000EF4E0950B2EBA2FA02D0B01B9019001AA
:100990000C01CA01A0011124FF27591B99F0593FEE
:1009A00050F4503E68F11A16F040A22F232F342F36
:1009B0004427585FF3CF469537952795A795F04084
:1009C0005395C9F77EF41F16BA0B620B730B840B99
:1009D000BAF09150A1F0FF0FBB1F661F771F881F51
:1009E000C2F70EC0BA0F621F731F841F48F48795A9
:1009F00077956795B795F7959E3F08F0B0CF93959B
:100A0000880F08F09927EE0F9795879508950E9413
:100A10008E0660F080E891E009F49EEF0E94950652
:100A200028F040E851E071F45EEF0CC00C946406CD
:100A30000C94CF06E92FE0780E94AD0640F3092E12
:100A4000052AB1F3261737074807590738F00E2E45
:100A500007F8E02569F0E025E0640AC0EF6307F8D5
:100A6000009407FADB01B9019D01DC01CA01AD0167
:100A7000EF930E9490050E949C060E944A055F9198
:100A8000552339F02BED3FE049E450FD49EC0C943F
:100A90009B040895DF93DD27B92FBF7740E85FE31C
:100AA0001616170648075B0718F4D92F0E94D606BA
:100AB0009F938F937F936F930E944B07E4EBF0E03B
:100AC0000E9467060E949C062F913F914F915F9173
:100AD0000E94F106DD2351F09058A2EA2AED3FE092
:100AE00049EC5FE3D0785D270E94B204DF910C945B
:100AF0009C060E948D050C949C060E94950658F059
:100B00000E948E0640F029F45F3F29F00C945E06A7
:100B100051110C94D0060C9464060E94AD0668F343
:100B20009923B1F3552391F3951B550BBB27AA27A6
:100B300062177307840738F09F5F5F4F220F331FE0
:100B4000441FAA1FA9F335D00E2E3AF0E0E832D0A8
:100B500091505040E695001CCAF72BD0FE2F29D0AB
:100B6000660F771F881FBB1F261737074807AB077D
:100B7000B0E809F0BB0B802DBF01FF2793585F4FF2
:100B80003AF09E3F510578F00C945E060C94D00626
:100B90005F3FE4F3983ED4F3869577956795B795D4
:100BA000F7959F5FC9F7880F911D9695879597F9DF
:100BB0000895E1E0660F771F881FBB1F6217730758
:100BC0008407BA0720F0621B730B840BBA0BEE1F6D
:100BD00088F7E09508950E94F2056894B1110C948D
:100BE000D00608950E94B50688F09F5798F0B92F57
:100BF0009927B751B0F0E1F0660F771F881F991F52
:100C00001AF0BA95C9F714C0B13091F00E94CF061E
:100C1000B1E008950C94CF06672F782F8827B85F2E
:100C200039F0B93FCCF3869577956795B395D9F7A9
:100C30003EF490958095709561957F4F8F4F9F4FB3
:100C40000895E89409C097FB3EF4909580957095BF
:100C500061957F4F8F4F9F4F9923A9F0F92F96E908
:100C6000BB279395F695879577956795B795F1117D
:100C7000F8CFFAF4BB0F11F460FF1BC06F5F7F4F1A
:100C80008F4F9F4F16C0882311F096E911C077232C
:100C900021F09EE8872F762F05C0662371F096E835
:100CA000862F70E060E02AF09A95660F771F881F04
:100CB000DAF7880F9695879597F9089597F99F67C2
:100CC00080E870E060E008959FEF80EC0895DF9386
:100CD000CF931F930F93FF92EF92DF927B018C01D2
:100CE000689406C0DA2EEF010E94F106FE01E89436
:100CF000A5912591359145915591A6F3EF010E945B
:100D0000B204FE019701A801DA9469F7DF90EF9031
:100D1000FF900F911F91CF91DF91089500240A94C5
:100D20001616170618060906089500240A941216C6
:100D30001306140605060895092E0394000C11F4F9
:100D4000882352F0BB0F40F4BF2B11F460FF04C0A6
:100D50006F5F7F4F8F4F9F4F089557FD9058440FFF
:100D6000551F59F05F3F71F04795880F97FB991F0A
:100D700061F09F3F79F087950895121613061406C7
:100D8000551FF2CF4695F1DF08C016161706180654
:100D9000991FF1CF86957105610508940895E8942F
:100DA000BB2766277727CB0197F908959B01AC01F4
:100DB00060E070E080E89FE30C9479050E94F10602
:100DC0000C949C060E948E0638F00E94950620F036
:100DD000952311F00C945E060C94640611240C9477
:100DE000D0060E94AD0670F3959FC1F3950F50E0B9
:100DF000551F629FF001729FBB27F00DB11D639FCD
:100E0000AA27F00DB11DAA1F649F6627B00DA11D72
:100E1000661F829F2227B00DA11D621F739FB00D18
:100E2000A11D621F839FA00D611D221F749F332788
:100E3000A00D611D231F849F600D211D822F762F21
:100E40006A2F11249F5750409AF0F1F088234AF0FE
:100E5000EE0FFF1FBB1F661F771F881F915050406A
:100E6000A9F79E3F510580F00C945E060C94D006C5
:100E70005F3FE4F3983ED4F3869577956795B795F1
:100E8000F795E7959F5FC1F7FE2B880F911D96950B
:100E9000879597F908959B01AC010C94DE06A1E2B9
:100EA0001A2EAA1BBB1BFD010DC0AA1FBB1FEE1FE4
:100EB000FF1FA217B307E407F50720F0A21BB30B2F
:100EC000E40BF50B661F771F881F991F1A9469F7AB
:100ED00060957095809590959B01AC01BD01CF0107
:100EE0000895EF920F931F93CF93DF93E80147FD8F
:100EF00002C034E001C034E1042E000C550B57FF52
:100F000003C0519541955109E32E022F242FAE01C4
:100F10000E949409CE01DF91CF911F910F91EF9024
:100F20000895AEE0B0E0E7E9F7E00C94840C0D8999
:100F30001E8986E08C831A8309838FEF9FE79E8347
:100F40008D83AE01475E5F4F6F89788DCE0101962C
:100F50000E94B307EF81F885E00FF11F10822E96F3
:100F6000E4E00C94A00CABE0B0E0E9EBF7E00C940B
:100F7000760C6C017B018A01FC0117821682838149
:100F800081FFCCC1CE0101963C01F6019381F701AE
:100F900093FD859193FF81917F01882309F4BAC164
:100FA000853239F493FD859193FF81917F018532DC
:100FB00029F4B60190E00E94DC0BE7CF912C212CA4
:100FC000312CFFE1F315D8F08B3279F038F4803210
:100FD00079F08332A1F4232D20611DC08D3261F0A0
:100FE000803369F4232D216016C0832D8260382E52
:100FF000E32DE4603E2E2AC0F32DF8601DC037FCBF
:101000002DC020ED280F2A3040F08E32B9F436FC86
:1010100081C1232D2064322E19C036FE06C08AE01D
:10102000989E200D1124922E11C0EAE02E9E200DD4
:101030001124222EF32DF0623F2E08C08C3621F4AD
:10104000832D8068382E02C0883641F4F70193FD65
:10105000859193FF81917F018111B3CF982F9F7D5F
:101060009554933028F40C5F1F4F9FE399830DC074
:10107000833631F0833771F0833509F059C021C0D0
:10108000F801808189830E5F1F4F88248394912CFF
:10109000530113C02801F2E04F0E511CF801A0804B
:1010A000B18036FE03C0692D70E002C06FEF7FEFA4
:1010B000C5010E94D10B4C018201F32DFF773F2E19
:1010C00016C0280122E0420E511CF801A080B18018
:1010D00036FE03C0692D70E002C06FEF7FEFC501DF
:1010E0000E94C60B4C01F32DF0683F2E820133FCA9
:1010F0001BC0822D90E088169906B0F4B60180E2FC
:1011000090E00E94DC0B2A94F4CFF50137FC859126
:1011100037FE81915F01B60190E00E94DC0B211047
:101120002A9421E0821A91088114910471F7E8C091
:10113000843611F0893641F5F80137FE07C0608129
:101140007181828193810C5F1F4F08C06081718122
:10115000072E000C880B990B0E5F1F4FF32DFF76A7
:101160003F2E97FF09C090958095709561957F4FB0
:101170008F4F9F4FF0683F2E2AE030E0A3010E947E
:10118000180C882E861845C0853731F4232D2F7E04
:10119000B22E2AE030E025C0932D997FB92E8F36EC
:1011A000C1F018F4883579F0B5C0803719F0883768
:1011B00021F0B0C0E92FE061BE2EB4FE0DC0FB2DC2
:1011C000F460BF2E09C034FE0AC0292F2660B22E5B
:1011D00006C028E030E005C020E130E002C020E198
:1011E00032E0F801B7FE07C060817181828193818E
:1011F0000C5F1F4F06C06081718180E090E00E5F40
:101200001F4FA3010E94180C882E8618FB2DFF7714
:101210003F2E36FE0DC0232D2E7FA22E891458F4AA
:1012200034FE0BC032FC09C0832D8E7EA82E05C073
:10123000B82CA32C03C0B82C01C0B92CA4FE0FC03D
:10124000FE01E80DF11D8081803321F49A2D997EF5
:10125000A92E09C0A2FE06C0B394B39404C08A2D7F
:10126000867809F0B394A3FC11C0A0FE06C0B214A6
:1012700088F4280C922C9B180EC0B21460F4B601AE
:1012800080E290E00E94DC0BB394F7CFB21418F424
:101290002B1802C0982C212CA4FE10C0B60180E3AC
:1012A00090E00E94DC0BA2FE17C0A1FC03C088E7FF
:1012B00090E002C088E590E0B6010CC08A2D8678E7
:1012C00059F0A1FE02C08BE201C080E2A7FC8DE2D2
:1012D000B60190E00E94DC0B891438F4B60180E37B
:1012E00090E00E94DC0B9A94F7CF8A94F301E80D0A
:1012F000F11D8081B60190E00E94DC0B8110F5CFDA
:10130000222009F442CEB60180E290E00E94DC0B7C
:101310002A94F6CFF6018681978102C08FEF9FEF66
:101320002B96E2E10C94920CA9E0B0E0EAE9F9E036
:101330000C947C0C6A01122FB02E2BE3201720F0A6
:10134000FF24F394F00E02C02CE3F22E0F2D27E0C1
:10135000AE014F5F5F4F0E94EE0ABC014981842FAE
:101360008970813031F0E1FC06C0E0FE06C090E2F9
:1013700005C09DE203C09BE201C090E05E2D50716C
:1013800043FF3CC0911102C083E001C084E081179B
:1013900018F4212F281B01C020E051110BC0F601C9
:1013A000822F30E2882319F031938150FBCFC20E97
:1013B000D11C20E0992329F0D6019C93F6013196A7
:1013C0006F01C6010396E2FE0AC03EE4D6013C93DB
:1013D00041E411964C93119712963C9306C03EE659
:1013E000F601308341E641833283FC01322F40E233
:1013F000332309F442C041933150FACF42FF44C035
:10140000911102C083E001C084E0811718F4212FFC
:10141000281B01C020E051110BC0F601822F30E2E1
:10142000882319F031938150FBCFC20ED11C20E0EC
:10143000992329F0D6019C93F60131966F01C601DC
:101440000396E2FE0BC039E4D6013C933EE41196CC
:101450003C93119736E412963C9307C039E6F601A7
:1014600030833EE6318336E63283FC01322F40E2A0
:10147000332319F041933150FBCFFC01E20FF11DF2
:1014800010828EEF9FEFA6C021E030E0911102C0E4
:1014900020E030E0161617061CF4FB01319602C05E
:1014A000E1E0F0E02E0F3F1FBB2021F0EB2DF0E03C
:1014B000319602C0E0E0F0E02E0F3F1FE12FF0E098
:1014C0002E173F071CF4121B212F01C020E08E2D88
:1014D000887159F4F601822F30E2882319F0319394
:1014E0008150FBCFC20ED11C20E0992329F0D601F8
:1014F0009C93F60131966F0151110BC0F601822FBA
:1015000090E3882319F091938150FBCFC20ED11C38
:1015100020E00F2D060F9A81342F307144FF03C055
:10152000913309F40150101624F4093018F008E042
:1015300001C001E0AB0177FF02C040E050E0FB01D9
:10154000E41BF50BA1E0B0E0AC0FBD1FEA0FFB1FE1
:101550008EE2A82E4B01801A91080B2D10E01195F8
:10156000019511094F3FBFEF5B0721F4D601AC9203
:1015700011966D01641775072CF08416950614F406
:10158000818101C080E3415051093196D601119605
:101590007D014017510724F0D6018C936701E2CFFB
:1015A0006417750739F4963320F4953319F4311123
:1015B00001C081E3F6018083F701822F90E2882346
:1015C00019F091938150FBCFF701E20FF11D1082CA
:1015D00080E090E02996ECE00C94980C283008F01C
:1015E00027E03327DA01990F311D87FD91600096BE
:1015F0006105710539F432602E5F3D9330E32A9521
:10160000E1F708959F3F30F080387105610509F0DA
:101610003C5F3C5F3D93913008F08068911DDF9303
:10162000CF931F930F93FF92EF92192F987F969568
:10163000E92F96959695E90FFF27E45CFE4F9927D1
:101640003327EE24FF24A701E701059008940794AF
:1016500028F4360FE71EF81E491F511D660F771F2D
:10166000881F991F0694A1F70590079428F4E70EA8
:10167000F81E491F561FC11D770F881F991F661F2F
:101680000694A1F70590079428F4F80E491F561FF9
:10169000C71FD11D880F991F661F771F0694A1F7DA
:1016A0000590079420F4490F561FC71FD81F990FA4
:1016B000661F771F881F0694A9F7849110951770ED
:1016C00041F0D695C79557954795F794E7941A95A5
:1016D000C1F7E2EEF0E068941590159135916591AF
:1016E000959105907FE27395E118F10A430B560B33
:1016F000C90BD009C0F7E10CF11E431F561FC91FCB
:10170000D01D7EF4703311F48A95E6CFE894015031
:1017100030F0080F0AF40027021708F4202F239551
:10172000022F7A3328F079E37D932A95E9F710C0E8
:101730007D932A9589F60694979567953795179521
:101740001794E118F10A430B560BC90BD00998F016
:1017500023957E9173957A3308F070E37C93201380
:10176000B8F77E9170617D9330F0839571E37D933E
:1017700070E32A95E1F71124EF90FF900F911F91EC
:10178000CF91DF91992787FD90950895FC010590F1
:10179000615070400110D8F7809590958E0F9F1F73
:1017A0000895FC016150704001900110D8F78095B8
:1017B00090958E0F9F1F08950F931F93CF93DF93E4
:1017C000FB01238121FD03C08FEF9FEF2CC022FF7F
:1017D00016C046815781248135814217530744F44E
:1017E000A081B1819D012F5F3F4F318320838C9376
:1017F000268137812F5F3F4F3783268314C08B01AB
:10180000EC01FB010084F185E02D0995892BE1F6BF
:10181000D80116968D919C911797019617969C93D7
:101820008E931697CE01DF91CF911F910F9108955E
:10183000FA01AA27283051F1203181F1E8946F9301
:101840006E7F6E5F7F4F8F4F9F4FAF4FB1E03ED0A7
:10185000B4E03CD0670F781F891F9A1FA11D680F45
:10186000791F8A1F911DA11D6A0F711D811D911D78
:10187000A11D20D009F468943F912AE0269F1124ED
:101880003019305D3193DEF6CF010895462F477051
:10189000405D4193B3E00FD0C9F7F6CF462F4F70AC
:1018A000405D4A3318F0495D31FD4052419302D00A
:1018B000A9F7EACFB4E0A6959795879577956795B0
:1018C000BA95C9F700976105710508959B01AC01B0
:1018D0000A2E06945795479537952795BA95C9F7D7
:1018E000620F731F841F951FA01D08952F923F92B2
:1018F0004F925F926F927F928F929F92AF92BF9220
:10190000CF92DF92EF92FF920F931F93CF93DF93CB
:10191000CDB7DEB7CA1BDB0B0FB6F894DEBF0FBE28
:10192000CDBF09942A88398848885F846E847D8475
:101930008C849B84AA84B984C884DF80EE80FD8077
:101940000C811B81AA81B981CE0FD11D0FB6F894ED
:0E195000DEBF0FBECDBFED010895F894FFCFAE
:0A195E0025732C200025730D0A00EC
:00000001FF
