S01300004441325F5461736B325F432E7372656394
S11300000C945A000C9464000C9464000C946400E6
S11300100C9464000C9464000C9464000C946400CC
S11300200C9464000C9464000C9464000C946400BC
S11300300C9464000C9464000C9464000C946400AC
S11300400C9464000C9464000C9464000C9464009C
S11300500C9464000C9464000C9464000C9464008C
S11300600C9464000C9464000C9464000C9464007C
S11300700C9464000C9464000C9464000C9464006C
S11300800C9464000C9464000C9464000C9464005C
S11300900C9464000C9464000C9464000C9464004C
S11300A00C9464000C9464000C9464000C9464003C
S11300B00C94640011241FBECFEFD8E0DEBFCDBF87
S11300C00E9466000C9487000C94000087B18D7F19
S11300D087B988B1826088B984B1806284B985B1F6
S11300E0806285B931990FC085B18F7D85B92FEFB5
S11300F082E795E5215080409040E1F700C0000080
S113010085B1806285B985B1806285B9EBCFF894F9
S1050110FFCF1B
S9030000FC
